:100000000C945C000C9479000C9479000C947900A9
:100010000C9479000C9479000C9479000C9479007C
:100020000C9479000C9479000C9479000C9479006C
:100030000C9479000C9479000C9479000C9479005C
:100040000C94E6000C9479000C9479000C947900DF
:100050000C9479000C9479000C9479000C9479003C
:100060000C9479000C947900000000080002010053
:100070000003040700000000000000000000000072
:10008000250028002B0000000000240027002A0083
:10009000040404040404040402020202020203032E
:1000A0000303030301020408102040800102040836
:1000B000102001020408102011241FBECFEFD8E049
:1000C000DEBFCDBF11E0A0E0B1E0E4E6F5E002C0A4
:1000D00005900D92A230B107D9F721E0A2E0B1E07E
:1000E00001C01D92AD30B207E1F70E9430010C94BF
:1000F000B0020C94000090E0FC01EC55FF4F2491FD
:1001000080579F4FFC018491882399F090E0880FDD
:10011000991FFC01EA57FF4FA591B491FC01E458E7
:10012000FF4F859194918FB7F894EC91E22BEC936B
:100130008FBF089590E0FC01E859FF4F2491FC0126
:10014000EC55FF4F3491FC01E057FF4FE491EE2353
:10015000C9F0222339F0233001F1A8F4213019F13C
:10016000223029F1F0E0EE0FFF1FE458FF4FA59178
:10017000B4918FB7F894EC91611126C030953E236D
:100180003C938FBF08952730A9F02830C9F0243060
:1001900049F7809180008F7D03C0809180008F7728
:1001A00080938000DFCF84B58F7784BDDBCF84B5AB
:1001B0008F7DFBCF8091B0008F778093B000D2CF3E
:1001C0008091B0008F7DF9CF3E2BDACF1F920F9236
:1001D0000FB60F9211242F933F938F939F93AF935A
:1001E000BF938091090190910A01A0910B01B091F8
:1001F0000C013091080123E0230F2D3758F50196AB
:10020000A11DB11D209308018093090190930A015B
:10021000A0930B01B0930C01809104019091050112
:10022000A0910601B09107010196A11DB11D809317
:10023000040190930501A0930601B0930701BF91BB
:10024000AF919F918F913F912F910F900FBE0F9083
:100250001F90189526E8230F0296A11DB11DD2CF3D
:10026000789484B5826084BD84B5816084BD85B591
:10027000826085BD85B5816085BD80916E0081609D
:1002800080936E0010928100809181008260809343
:100290008100809181008160809381008091800045
:1002A0008160809380008091B10084608093B10070
:1002B0008091B00081608093B00080917A0084606A
:1002C00080937A0080917A00826080937A00809196
:1002D0007A00816080937A0080917A0080688093B0
:1002E0007A001092C1008AE00E947B0089E00E949F
:1002F0007B0088E00E947B0060E08AE00E949A0018
:1003000061E089E00E949A0060E088E00E949A0023
:1003100080E4382E9BECC92EDD24D394E12CF12C03
:100320000CEC11E02CEC822E99249394A12CB12C8E
:1003300032E7432E30E0532E40E0642E40E0742E2E
:1003400030927C0080917A00806480937A00809162
:100350007A0086FDFCCF20917800C0917900DC2FD7
:10036000C22FD0930101C0930001CC3C81E0D8079B
:100370007CF560E089E00E949A0061E088E00E94DC
:100380009A00D801AC1BBD0BB0930101A0930001F2
:100390002FEF30E00E94A902A50194010E944E02B5
:1003A0003093030120930201C0910201D091030117
:1003B0008AE00E947B00209759F560E08AE00E9465
:1003C0009A006114710409F4BBCF0E940000B8CFF9
:1003D000C533E2E0DE07BCF061E089E00E949A00EC
:1003E00060E088E00E949A009E01DD0F440B550BEF
:1003F0002453324041095109AFEFB0E00E946D0231
:10040000A7019601CBCF1092030110920201CCCF2D
:10041000CF3FD10511F461E0D1CFF2018491833057
:1004200019F140F48130B1F08230C9F0C038D10503
:1004300094F7C3CF873011F1883041F18430B1F7A0
:1004400080918000806280938000D0938B00C09365
:100450008A00B7CF84B5806884BDC7BDB2CF84B5EC
:10046000806284BDC8BDADCF8091800080688093DC
:100470008000D0938900C0938800A3CF8091B00002
:1004800080688093B000C093B3009BCF8091B00090
:1004900080628093B000C093B40093CF052E97FB89
:1004A0001EF400940E94650257FD07D00E94780256
:1004B00007FC03D04EF40C9465025095409530959E
:1004C00021953F4F4F4F5F4F0895909580957095C0
:1004D00061957F4F8F4F9F4F08950E949A02A59F6D
:1004E000900DB49F900DA49F800D911D112408952F
:1004F000A1E21A2EAA1BBB1BFD010DC0AA1FBB1F28
:10050000EE1FFF1FA217B307E407F50720F0A21B99
:10051000B30BE40BF50B661F771F881F991F1A9406
:1005200069F760957095809590959B01AC01BD0130
:10053000CF010895A29FB001B39FC001A39F700D8A
:10054000811D1124911DB29F700D811D1124911DDB
:1005500008950E949A02B7FF0895821B930B089595
:04056000F894FFCF3D
:02056400000293
:00000001FF
